{
  "contractName": "Land",
  "abi": [
    {
      "inputs": [
        {
          "internalType": "string",
          "name": "_name",
          "type": "string"
        },
        {
          "internalType": "string",
          "name": "_symbol",
          "type": "string"
        },
        {
          "internalType": "uint256",
          "name": "_cost",
          "type": "uint256"
        }
      ],
      "stateMutability": "nonpayable",
      "type": "constructor"
    },
    {
      "anonymous": false,
      "inputs": [
        {
          "indexed": true,
          "internalType": "address",
          "name": "owner",
          "type": "address"
        },
        {
          "indexed": true,
          "internalType": "address",
          "name": "approved",
          "type": "address"
        },
        {
          "indexed": true,
          "internalType": "uint256",
          "name": "tokenId",
          "type": "uint256"
        }
      ],
      "name": "Approval",
      "type": "event"
    },
    {
      "anonymous": false,
      "inputs": [
        {
          "indexed": true,
          "internalType": "address",
          "name": "owner",
          "type": "address"
        },
        {
          "indexed": true,
          "internalType": "address",
          "name": "operator",
          "type": "address"
        },
        {
          "indexed": false,
          "internalType": "bool",
          "name": "approved",
          "type": "bool"
        }
      ],
      "name": "ApprovalForAll",
      "type": "event"
    },
    {
      "anonymous": false,
      "inputs": [
        {
          "indexed": true,
          "internalType": "address",
          "name": "from",
          "type": "address"
        },
        {
          "indexed": true,
          "internalType": "address",
          "name": "to",
          "type": "address"
        },
        {
          "indexed": true,
          "internalType": "uint256",
          "name": "tokenId",
          "type": "uint256"
        }
      ],
      "name": "Transfer",
      "type": "event"
    },
    {
      "inputs": [
        {
          "internalType": "address",
          "name": "to",
          "type": "address"
        },
        {
          "internalType": "uint256",
          "name": "tokenId",
          "type": "uint256"
        }
      ],
      "name": "approve",
      "outputs": [],
      "stateMutability": "nonpayable",
      "type": "function"
    },
    {
      "inputs": [
        {
          "internalType": "address",
          "name": "owner",
          "type": "address"
        }
      ],
      "name": "balanceOf",
      "outputs": [
        {
          "internalType": "uint256",
          "name": "",
          "type": "uint256"
        }
      ],
      "stateMutability": "view",
      "type": "function",
      "constant": true
    },
    {
      "inputs": [
        {
          "internalType": "uint256",
          "name": "",
          "type": "uint256"
        }
      ],
      "name": "buildings",
      "outputs": [
        {
          "internalType": "string",
          "name": "name",
          "type": "string"
        },
        {
          "internalType": "address",
          "name": "owner",
          "type": "address"
        },
        {
          "internalType": "int256",
          "name": "posX",
          "type": "int256"
        },
        {
          "internalType": "int256",
          "name": "posY",
          "type": "int256"
        },
        {
          "internalType": "int256",
          "name": "posZ",
          "type": "int256"
        },
        {
          "internalType": "uint256",
          "name": "sizeX",
          "type": "uint256"
        },
        {
          "internalType": "uint256",
          "name": "sizeY",
          "type": "uint256"
        },
        {
          "internalType": "uint256",
          "name": "sizeZ",
          "type": "uint256"
        }
      ],
      "stateMutability": "view",
      "type": "function",
      "constant": true
    },
    {
      "inputs": [],
      "name": "cost",
      "outputs": [
        {
          "internalType": "uint256",
          "name": "",
          "type": "uint256"
        }
      ],
      "stateMutability": "view",
      "type": "function",
      "constant": true
    },
    {
      "inputs": [
        {
          "internalType": "uint256",
          "name": "tokenId",
          "type": "uint256"
        }
      ],
      "name": "getApproved",
      "outputs": [
        {
          "internalType": "address",
          "name": "",
          "type": "address"
        }
      ],
      "stateMutability": "view",
      "type": "function",
      "constant": true
    },
    {
      "inputs": [
        {
          "internalType": "address",
          "name": "owner",
          "type": "address"
        },
        {
          "internalType": "address",
          "name": "operator",
          "type": "address"
        }
      ],
      "name": "isApprovedForAll",
      "outputs": [
        {
          "internalType": "bool",
          "name": "",
          "type": "bool"
        }
      ],
      "stateMutability": "view",
      "type": "function",
      "constant": true
    },
    {
      "inputs": [],
      "name": "maxSupply",
      "outputs": [
        {
          "internalType": "uint256",
          "name": "",
          "type": "uint256"
        }
      ],
      "stateMutability": "view",
      "type": "function",
      "constant": true
    },
    {
      "inputs": [],
      "name": "name",
      "outputs": [
        {
          "internalType": "string",
          "name": "",
          "type": "string"
        }
      ],
      "stateMutability": "view",
      "type": "function",
      "constant": true
    },
    {
      "inputs": [
        {
          "internalType": "uint256",
          "name": "tokenId",
          "type": "uint256"
        }
      ],
      "name": "ownerOf",
      "outputs": [
        {
          "internalType": "address",
          "name": "",
          "type": "address"
        }
      ],
      "stateMutability": "view",
      "type": "function",
      "constant": true
    },
    {
      "inputs": [
        {
          "internalType": "address",
          "name": "operator",
          "type": "address"
        },
        {
          "internalType": "bool",
          "name": "approved",
          "type": "bool"
        }
      ],
      "name": "setApprovalForAll",
      "outputs": [],
      "stateMutability": "nonpayable",
      "type": "function"
    },
    {
      "inputs": [
        {
          "internalType": "bytes4",
          "name": "interfaceId",
          "type": "bytes4"
        }
      ],
      "name": "supportsInterface",
      "outputs": [
        {
          "internalType": "bool",
          "name": "",
          "type": "bool"
        }
      ],
      "stateMutability": "view",
      "type": "function",
      "constant": true
    },
    {
      "inputs": [],
      "name": "symbol",
      "outputs": [
        {
          "internalType": "string",
          "name": "",
          "type": "string"
        }
      ],
      "stateMutability": "view",
      "type": "function",
      "constant": true
    },
    {
      "inputs": [
        {
          "internalType": "uint256",
          "name": "tokenId",
          "type": "uint256"
        }
      ],
      "name": "tokenURI",
      "outputs": [
        {
          "internalType": "string",
          "name": "",
          "type": "string"
        }
      ],
      "stateMutability": "view",
      "type": "function",
      "constant": true
    },
    {
      "inputs": [],
      "name": "totalSupply",
      "outputs": [
        {
          "internalType": "uint256",
          "name": "",
          "type": "uint256"
        }
      ],
      "stateMutability": "view",
      "type": "function",
      "constant": true
    },
    {
      "stateMutability": "payable",
      "type": "receive",
      "payable": true
    },
    {
      "inputs": [
        {
          "internalType": "uint256",
          "name": "_id",
          "type": "uint256"
        }
      ],
      "name": "mint",
      "outputs": [],
      "stateMutability": "payable",
      "type": "function",
      "payable": true
    },
    {
      "inputs": [
        {
          "internalType": "address",
          "name": "from",
          "type": "address"
        },
        {
          "internalType": "address",
          "name": "to",
          "type": "address"
        },
        {
          "internalType": "uint256",
          "name": "tokenId",
          "type": "uint256"
        }
      ],
      "name": "transferFrom",
      "outputs": [],
      "stateMutability": "nonpayable",
      "type": "function"
    },
    {
      "inputs": [
        {
          "internalType": "address",
          "name": "from",
          "type": "address"
        },
        {
          "internalType": "address",
          "name": "to",
          "type": "address"
        },
        {
          "internalType": "uint256",
          "name": "tokenId",
          "type": "uint256"
        }
      ],
      "name": "safeTransferFrom",
      "outputs": [],
      "stateMutability": "nonpayable",
      "type": "function"
    },
    {
      "inputs": [
        {
          "internalType": "address",
          "name": "from",
          "type": "address"
        },
        {
          "internalType": "address",
          "name": "to",
          "type": "address"
        },
        {
          "internalType": "uint256",
          "name": "tokenId",
          "type": "uint256"
        },
        {
          "internalType": "bytes",
          "name": "_data",
          "type": "bytes"
        }
      ],
      "name": "safeTransferFrom",
      "outputs": [],
      "stateMutability": "nonpayable",
      "type": "function"
    },
    {
      "inputs": [],
      "name": "getBuildings",
      "outputs": [
        {
          "components": [
            {
              "internalType": "string",
              "name": "name",
              "type": "string"
            },
            {
              "internalType": "address",
              "name": "owner",
              "type": "address"
            },
            {
              "internalType": "int256",
              "name": "posX",
              "type": "int256"
            },
            {
              "internalType": "int256",
              "name": "posY",
              "type": "int256"
            },
            {
              "internalType": "int256",
              "name": "posZ",
              "type": "int256"
            },
            {
              "internalType": "uint256",
              "name": "sizeX",
              "type": "uint256"
            },
            {
              "internalType": "uint256",
              "name": "sizeY",
              "type": "uint256"
            },
            {
              "internalType": "uint256",
              "name": "sizeZ",
              "type": "uint256"
            }
          ],
          "internalType": "struct Land.Building[]",
          "name": "",
          "type": "tuple[]"
        }
      ],
      "stateMutability": "view",
      "type": "function",
      "constant": true
    },
    {
      "inputs": [
        {
          "internalType": "uint256",
          "name": "_id",
          "type": "uint256"
        }
      ],
      "name": "getBuilding",
      "outputs": [
        {
          "components": [
            {
              "internalType": "string",
              "name": "name",
              "type": "string"
            },
            {
              "internalType": "address",
              "name": "owner",
              "type": "address"
            },
            {
              "internalType": "int256",
              "name": "posX",
              "type": "int256"
            },
            {
              "internalType": "int256",
              "name": "posY",
              "type": "int256"
            },
            {
              "internalType": "int256",
              "name": "posZ",
              "type": "int256"
            },
            {
              "internalType": "uint256",
              "name": "sizeX",
              "type": "uint256"
            },
            {
              "internalType": "uint256",
              "name": "sizeY",
              "type": "uint256"
            },
            {
              "internalType": "uint256",
              "name": "sizeZ",
              "type": "uint256"
            }
          ],
          "internalType": "struct Land.Building",
          "name": "",
          "type": "tuple"
        }
      ],
      "stateMutability": "view",
      "type": "function",
      "constant": true
    }
  ],
  "bytecode": "0x6080604052670de0b6b3a764000060065560056007553480156200002257600080fd5b5060405162003f1838038062003f18833981810160405281019062000048919062000a1b565b828281600090805190602001906200006292919062000793565b5080600190805190602001906200007b92919062000793565b5050508060068190555060096040518061010001604052806040518060400160405280600981526020017f436974792048616c6c00000000000000000000000000000000000000000000008152508152602001600073ffffffffffffffffffffffffffffffffffffffff168152602001600081526020016000815260200160008152602001600a8152602001600a8152602001600a815250908060018154018082558091505060019003906000526020600020906008020160009091909190915060008201518160000190805190602001906200015a92919062000793565b5060208201518160010160006101000a81548173ffffffffffffffffffffffffffffffffffffffff021916908373ffffffffffffffffffffffffffffffffffffffff16021790555060408201518160020155606082015181600301556080820151816004015560a0820151816005015560c0820151816006015560e08201518160070155505060096040518061010001604052806040518060400160405280600781526020017f5374616469756d000000000000000000000000000000000000000000000000008152508152602001600073ffffffffffffffffffffffffffffffffffffffff16815260200160008152602001600a815260200160008152602001600a815260200160058152602001600381525090806001815401808255809150506001900390600052602060002090600802016000909190919091506000820151816000019080519060200190620002b592919062000793565b5060208201518160010160006101000a81548173ffffffffffffffffffffffffffffffffffffffff021916908373ffffffffffffffffffffffffffffffffffffffff16021790555060408201518160020155606082015181600301556080820151816004015560a0820151816005015560c0820151816006015560e08201518160070155505060096040518061010001604052806040518060400160405280600a81526020017f556e6976657273697479000000000000000000000000000000000000000000008152508152602001600073ffffffffffffffffffffffffffffffffffffffff168152602001600081526020017ffffffffffffffffffffffffffffffffffffffffffffffffffffffffffffffff6815260200160008152602001600a8152602001600581526020016003815250908060018154018082558091505060019003906000526020600020906008020160009091909190915060008201518160000190805190602001906200042f92919062000793565b5060208201518160010160006101000a81548173ffffffffffffffffffffffffffffffffffffffff021916908373ffffffffffffffffffffffffffffffffffffffff16021790555060408201518160020155606082015181600301556080820151816004015560a0820151816005015560c0820151816006015560e08201518160070155505060096040518061010001604052806040518060400160405280601081526020017f53686f7070696e6720506c617a612031000000000000000000000000000000008152508152602001600073ffffffffffffffffffffffffffffffffffffffff168152602001600a8152602001600081526020016000815260200160058152602001601981526020016005815250908060018154018082558091505060019003906000526020600020906008020160009091909190915060008201518160000190805190602001906200058a92919062000793565b5060208201518160010160006101000a81548173ffffffffffffffffffffffffffffffffffffffff021916908373ffffffffffffffffffffffffffffffffffffffff16021790555060408201518160020155606082015181600301556080820151816004015560a0820151816005015560c0820151816006015560e08201518160070155505060096040518061010001604052806040518060400160405280601081526020017f53686f7070696e6720506c617a612032000000000000000000000000000000008152508152602001600073ffffffffffffffffffffffffffffffffffffffff1681526020017ffffffffffffffffffffffffffffffffffffffffffffffffffffffffffffffff68152602001600081526020016000815260200160058152602001601981526020016005815250908060018154018082558091505060019003906000526020600020906008020160009091909190915060008201518160000190805190602001906200070492919062000793565b5060208201518160010160006101000a81548173ffffffffffffffffffffffffffffffffffffffff021916908373ffffffffffffffffffffffffffffffffffffffff16021790555060408201518160020155606082015181600301556080820151816004015560a0820151816005015560c0820151816006015560e08201518160070155505050505062000b19565b828054620007a19062000ae4565b90600052602060002090601f016020900481019282620007c5576000855562000811565b82601f10620007e057805160ff191683800117855562000811565b8280016001018555821562000811579182015b8281111562000810578251825591602001919060010190620007f3565b5b50905062000820919062000824565b5090565b5b808211156200083f57600081600090555060010162000825565b5090565b6000604051905090565b600080fd5b600080fd5b600080fd5b600080fd5b6000601f19601f8301169050919050565b7f4e487b7100000000000000000000000000000000000000000000000000000000600052604160045260246000fd5b620008ac8262000861565b810181811067ffffffffffffffff82111715620008ce57620008cd62000872565b5b80604052505050565b6000620008e362000843565b9050620008f18282620008a1565b919050565b600067ffffffffffffffff82111562000914576200091362000872565b5b6200091f8262000861565b9050602081019050919050565b60005b838110156200094c5780820151818401526020810190506200092f565b838111156200095c576000848401525b50505050565b6000620009796200097384620008f6565b620008d7565b9050828152602081018484840111156200099857620009976200085c565b5b620009a58482856200092c565b509392505050565b600082601f830112620009c557620009c462000857565b5b8151620009d784826020860162000962565b91505092915050565b6000819050919050565b620009f581620009e0565b811462000a0157600080fd5b50565b60008151905062000a1581620009ea565b92915050565b60008060006060848603121562000a375762000a366200084d565b5b600084015167ffffffffffffffff81111562000a585762000a5762000852565b5b62000a6686828701620009ad565b935050602084015167ffffffffffffffff81111562000a8a5762000a8962000852565b5b62000a9886828701620009ad565b925050604062000aab8682870162000a04565b9150509250925092565b7f4e487b7100000000000000000000000000000000000000000000000000000000600052602260045260246000fd5b6000600282049050600182168062000afd57607f821691505b60208210810362000b135762000b1262000ab5565b5b50919050565b6133ef8062000b296000396000f3fe6080604052600436106101235760003560e01c806370a08231116100a0578063b88d4fde11610064578063b88d4fde14610410578063c87b56dd14610439578063d5abeb0114610476578063d9cf6a26146104a1578063e985e9c5146104cc5761012a565b806370a082311461032657806395d89b41146103635780639dfd8b021461038e578063a0712d68146103cb578063a22cb465146103e75761012a565b806318160ddd116100e757806318160ddd1461022857806323b872dd1461025357806342842e0e1461027c5780634c96a062146102a55780636352211e146102e95761012a565b806301ffc9a71461012f57806306fdde031461016c578063081812fc14610197578063095ea7b3146101d457806313faede6146101fd5761012a565b3661012a57005b600080fd5b34801561013b57600080fd5b5061015660048036038101906101519190611f8d565b610509565b6040516101639190611fd5565b60405180910390f35b34801561017857600080fd5b506101816105eb565b60405161018e9190612089565b60405180910390f35b3480156101a357600080fd5b506101be60048036038101906101b991906120e1565b61067d565b6040516101cb919061214f565b60405180910390f35b3480156101e057600080fd5b506101fb60048036038101906101f69190612196565b610702565b005b34801561020957600080fd5b50610212610819565b60405161021f91906121e5565b60405180910390f35b34801561023457600080fd5b5061023d61081f565b60405161024a91906121e5565b60405180910390f35b34801561025f57600080fd5b5061027a60048036038101906102759190612200565b610825565b005b34801561028857600080fd5b506102a3600480360381019061029e9190612200565b6108f5565b005b3480156102b157600080fd5b506102cc60048036038101906102c791906120e1565b610915565b6040516102e098979695949392919061226c565b60405180910390f35b3480156102f557600080fd5b50610310600480360381019061030b91906120e1565b610a15565b60405161031d919061214f565b60405180910390f35b34801561033257600080fd5b5061034d600480360381019061034891906122f1565b610ac6565b60405161035a91906121e5565b60405180910390f35b34801561036f57600080fd5b50610378610b7d565b6040516103859190612089565b60405180910390f35b34801561039a57600080fd5b506103b560048036038101906103b091906120e1565b610c0f565b6040516103c29190612445565b60405180910390f35b6103e560048036038101906103e091906120e1565b610d7c565b005b3480156103f357600080fd5b5061040e60048036038101906104099190612493565b610ef9565b005b34801561041c57600080fd5b5061043760048036038101906104329190612608565b610f0f565b005b34801561044557600080fd5b50610460600480360381019061045b91906120e1565b610fe1565b60405161046d9190612089565b60405180910390f35b34801561048257600080fd5b5061048b611088565b60405161049891906121e5565b60405180910390f35b3480156104ad57600080fd5b506104b661108e565b6040516104c391906127fd565b60405180910390f35b3480156104d857600080fd5b506104f360048036038101906104ee919061281f565b611212565b6040516105009190611fd5565b60405180910390f35b60007f80ac58cd000000000000000000000000000000000000000000000000000000007bffffffffffffffffffffffffffffffffffffffffffffffffffffffff1916827bffffffffffffffffffffffffffffffffffffffffffffffffffffffff191614806105d457507f5b5e139f000000000000000000000000000000000000000000000000000000007bffffffffffffffffffffffffffffffffffffffffffffffffffffffff1916827bffffffffffffffffffffffffffffffffffffffffffffffffffffffff1916145b806105e457506105e3826112a6565b5b9050919050565b6060600080546105fa9061288e565b80601f01602080910402602001604051908101604052809291908181526020018280546106269061288e565b80156106735780601f1061064857610100808354040283529160200191610673565b820191906000526020600020905b81548152906001019060200180831161065657829003601f168201915b5050505050905090565b600061068882611310565b6106c7576040517f08c379a00000000000000000000000000000000000000000000000000000000081526004016106be90612931565b60405180910390fd5b6004600083815260200190815260200160002060009054906101000a900473ffffffffffffffffffffffffffffffffffffffff169050919050565b600061070d82610a15565b90508073ffffffffffffffffffffffffffffffffffffffff168373ffffffffffffffffffffffffffffffffffffffff160361077d576040517f08c379a0000000000000000000000000000000000000000000000000000000008152600401610774906129c3565b60405180910390fd5b8073ffffffffffffffffffffffffffffffffffffffff1661079c61137c565b73ffffffffffffffffffffffffffffffffffffffff1614806107cb57506107ca816107c561137c565b611212565b5b61080a576040517f08c379a000000000000000000000000000000000000000000000000000000000815260040161080190612a55565b60405180910390fd5b6108148383611384565b505050565b60065481565b60085481565b61083661083061137c565b8261143d565b610875576040517f08c379a000000000000000000000000000000000000000000000000000000000815260040161086c90612ae7565b60405180910390fd5b8160096001836108859190612b36565b8154811061089657610895612b6a565b5b906000526020600020906008020160010160006101000a81548173ffffffffffffffffffffffffffffffffffffffff021916908373ffffffffffffffffffffffffffffffffffffffff1602179055506108f083838361151b565b505050565b61091083838360405180602001604052806000815250610f0f565b505050565b6009818154811061092557600080fd5b90600052602060002090600802016000915090508060000180546109489061288e565b80601f01602080910402602001604051908101604052809291908181526020018280546109749061288e565b80156109c15780601f10610996576101008083540402835291602001916109c1565b820191906000526020600020905b8154815290600101906020018083116109a457829003601f168201915b5050505050908060010160009054906101000a900473ffffffffffffffffffffffffffffffffffffffff16908060020154908060030154908060040154908060050154908060060154908060070154905088565b6000806002600084815260200190815260200160002060009054906101000a900473ffffffffffffffffffffffffffffffffffffffff169050600073ffffffffffffffffffffffffffffffffffffffff168173ffffffffffffffffffffffffffffffffffffffff1603610abd576040517f08c379a0000000000000000000000000000000000000000000000000000000008152600401610ab490612c0b565b60405180910390fd5b80915050919050565b60008073ffffffffffffffffffffffffffffffffffffffff168273ffffffffffffffffffffffffffffffffffffffff1603610b36576040517f08c379a0000000000000000000000000000000000000000000000000000000008152600401610b2d90612c9d565b60405180910390fd5b600360008373ffffffffffffffffffffffffffffffffffffffff1673ffffffffffffffffffffffffffffffffffffffff168152602001908152602001600020549050919050565b606060018054610b8c9061288e565b80601f0160208091040260200160405190810160405280929190818152602001828054610bb89061288e565b8015610c055780601f10610bda57610100808354040283529160200191610c05565b820191906000526020600020905b815481529060010190602001808311610be857829003601f168201915b5050505050905090565b610c17611ec6565b6009600183610c269190612b36565b81548110610c3757610c36612b6a565b5b906000526020600020906008020160405180610100016040529081600082018054610c619061288e565b80601f0160208091040260200160405190810160405280929190818152602001828054610c8d9061288e565b8015610cda5780601f10610caf57610100808354040283529160200191610cda565b820191906000526020600020905b815481529060010190602001808311610cbd57829003601f168201915b505050505081526020016001820160009054906101000a900473ffffffffffffffffffffffffffffffffffffffff1673ffffffffffffffffffffffffffffffffffffffff1673ffffffffffffffffffffffffffffffffffffffff16815260200160028201548152602001600382015481526020016004820154815260200160058201548152602001600682015481526020016007820154815250509050919050565b60006008549050600754811115610d9257600080fd5b600073ffffffffffffffffffffffffffffffffffffffff166009600184610db99190612b36565b81548110610dca57610dc9612b6a565b5b906000526020600020906008020160010160009054906101000a900473ffffffffffffffffffffffffffffffffffffffff1673ffffffffffffffffffffffffffffffffffffffff1614610e1c57600080fd5b600654341015610e61576040517f08c379a0000000000000000000000000000000000000000000000000000000008152600401610e5890612d09565b60405180910390fd5b336009600184610e719190612b36565b81548110610e8257610e81612b6a565b5b906000526020600020906008020160010160006101000a81548173ffffffffffffffffffffffffffffffffffffffff021916908373ffffffffffffffffffffffffffffffffffffffff160217905550600160086000828254610ee49190612d29565b92505081905550610ef53383611781565b5050565b610f0b610f0461137c565b838361179f565b5050565b610f20610f1a61137c565b8361143d565b610f5f576040517f08c379a0000000000000000000000000000000000000000000000000000000008152600401610f5690612ae7565b60405180910390fd5b826009600184610f6f9190612b36565b81548110610f8057610f7f612b6a565b5b906000526020600020906008020160010160006101000a81548173ffffffffffffffffffffffffffffffffffffffff021916908373ffffffffffffffffffffffffffffffffffffffff160217905550610fdb8484848461190b565b50505050565b6060610fec82611310565b61102b576040517f08c379a000000000000000000000000000000000000000000000000000000000815260040161102290612df1565b60405180910390fd5b6000611035611967565b905060008151116110555760405180602001604052806000815250611080565b8061105f8461197e565b604051602001611070929190612e4d565b6040516020818303038152906040525b915050919050565b60075481565b60606009805480602002602001604051908101604052809291908181526020016000905b828210156112095783829060005260206000209060080201604051806101000160405290816000820180546110e69061288e565b80601f01602080910402602001604051908101604052809291908181526020018280546111129061288e565b801561115f5780601f106111345761010080835404028352916020019161115f565b820191906000526020600020905b81548152906001019060200180831161114257829003601f168201915b505050505081526020016001820160009054906101000a900473ffffffffffffffffffffffffffffffffffffffff1673ffffffffffffffffffffffffffffffffffffffff1673ffffffffffffffffffffffffffffffffffffffff1681526020016002820154815260200160038201548152602001600482015481526020016005820154815260200160068201548152602001600782015481525050815260200190600101906110b2565b50505050905090565b6000600560008473ffffffffffffffffffffffffffffffffffffffff1673ffffffffffffffffffffffffffffffffffffffff16815260200190815260200160002060008373ffffffffffffffffffffffffffffffffffffffff1673ffffffffffffffffffffffffffffffffffffffff16815260200190815260200160002060009054906101000a900460ff16905092915050565b60007f01ffc9a7000000000000000000000000000000000000000000000000000000007bffffffffffffffffffffffffffffffffffffffffffffffffffffffff1916827bffffffffffffffffffffffffffffffffffffffffffffffffffffffff1916149050919050565b60008073ffffffffffffffffffffffffffffffffffffffff166002600084815260200190815260200160002060009054906101000a900473ffffffffffffffffffffffffffffffffffffffff1673ffffffffffffffffffffffffffffffffffffffff1614159050919050565b600033905090565b816004600083815260200190815260200160002060006101000a81548173ffffffffffffffffffffffffffffffffffffffff021916908373ffffffffffffffffffffffffffffffffffffffff160217905550808273ffffffffffffffffffffffffffffffffffffffff166113f783610a15565b73ffffffffffffffffffffffffffffffffffffffff167f8c5be1e5ebec7d5bd14f71427d1e84f3dd0314c0f7b2291e5b200ac8c7c3b92560405160405180910390a45050565b600061144882611310565b611487576040517f08c379a000000000000000000000000000000000000000000000000000000000815260040161147e90612ee3565b60405180910390fd5b600061149283610a15565b90508073ffffffffffffffffffffffffffffffffffffffff168473ffffffffffffffffffffffffffffffffffffffff1614806114d457506114d38185611212565b5b8061151257508373ffffffffffffffffffffffffffffffffffffffff166114fa8461067d565b73ffffffffffffffffffffffffffffffffffffffff16145b91505092915050565b8273ffffffffffffffffffffffffffffffffffffffff1661153b82610a15565b73ffffffffffffffffffffffffffffffffffffffff1614611591576040517f08c379a000000000000000000000000000000000000000000000000000000000815260040161158890612f75565b60405180910390fd5b600073ffffffffffffffffffffffffffffffffffffffff168273ffffffffffffffffffffffffffffffffffffffff1603611600576040517f08c379a00000000000000000000000000000000000000000000000000000000081526004016115f790613007565b60405180910390fd5b61160b838383611ade565b611616600082611384565b6001600360008573ffffffffffffffffffffffffffffffffffffffff1673ffffffffffffffffffffffffffffffffffffffff16815260200190815260200160002060008282546116669190612b36565b925050819055506001600360008473ffffffffffffffffffffffffffffffffffffffff1673ffffffffffffffffffffffffffffffffffffffff16815260200190815260200160002060008282546116bd9190612d29565b92505081905550816002600083815260200190815260200160002060006101000a81548173ffffffffffffffffffffffffffffffffffffffff021916908373ffffffffffffffffffffffffffffffffffffffff160217905550808273ffffffffffffffffffffffffffffffffffffffff168473ffffffffffffffffffffffffffffffffffffffff167fddf252ad1be2c89b69c2b068fc378daa952ba7f163c4a11628f55a4df523b3ef60405160405180910390a461177c838383611ae3565b505050565b61179b828260405180602001604052806000815250611ae8565b5050565b8173ffffffffffffffffffffffffffffffffffffffff168373ffffffffffffffffffffffffffffffffffffffff160361180d576040517f08c379a000000000000000000000000000000000000000000000000000000000815260040161180490613073565b60405180910390fd5b80600560008573ffffffffffffffffffffffffffffffffffffffff1673ffffffffffffffffffffffffffffffffffffffff16815260200190815260200160002060008473ffffffffffffffffffffffffffffffffffffffff1673ffffffffffffffffffffffffffffffffffffffff16815260200190815260200160002060006101000a81548160ff0219169083151502179055508173ffffffffffffffffffffffffffffffffffffffff168373ffffffffffffffffffffffffffffffffffffffff167f17307eab39ab6107e8899845ad3d59bd9653f200f220920489ca2b5937696c31836040516118fe9190611fd5565b60405180910390a3505050565b61191684848461151b565b61192284848484611b43565b611961576040517f08c379a000000000000000000000000000000000000000000000000000000000815260040161195890613105565b60405180910390fd5b50505050565b606060405180602001604052806000815250905090565b6060600082036119c5576040518060400160405280600181526020017f30000000000000000000000000000000000000000000000000000000000000008152509050611ad9565b600082905060005b600082146119f75780806119e090613125565b915050600a826119f0919061319c565b91506119cd565b60008167ffffffffffffffff811115611a1357611a126124dd565b5b6040519080825280601f01601f191660200182016040528015611a455781602001600182028036833780820191505090505b5090505b60008514611ad257600182611a5e9190612b36565b9150600a85611a6d91906131cd565b6030611a799190612d29565b60f81b818381518110611a8f57611a8e612b6a565b5b60200101907effffffffffffffffffffffffffffffffffffffffffffffffffffffffffffff1916908160001a905350600a85611acb919061319c565b9450611a49565b8093505050505b919050565b505050565b505050565b611af28383611cca565b611aff6000848484611b43565b611b3e576040517f08c379a0000000000000000000000000000000000000000000000000000000008152600401611b3590613105565b60405180910390fd5b505050565b6000611b648473ffffffffffffffffffffffffffffffffffffffff16611ea3565b15611cbd578373ffffffffffffffffffffffffffffffffffffffff1663150b7a02611b8d61137c565b8786866040518563ffffffff1660e01b8152600401611baf9493929190613253565b6020604051808303816000875af1925050508015611beb57506040513d601f19601f82011682018060405250810190611be891906132b4565b60015b611c6d573d8060008114611c1b576040519150601f19603f3d011682016040523d82523d6000602084013e611c20565b606091505b506000815103611c65576040517f08c379a0000000000000000000000000000000000000000000000000000000008152600401611c5c90613105565b60405180910390fd5b805181602001fd5b63150b7a0260e01b7bffffffffffffffffffffffffffffffffffffffffffffffffffffffff1916817bffffffffffffffffffffffffffffffffffffffffffffffffffffffff191614915050611cc2565b600190505b949350505050565b600073ffffffffffffffffffffffffffffffffffffffff168273ffffffffffffffffffffffffffffffffffffffff1603611d39576040517f08c379a0000000000000000000000000000000000000000000000000000000008152600401611d309061332d565b60405180910390fd5b611d4281611310565b15611d82576040517f08c379a0000000000000000000000000000000000000000000000000000000008152600401611d7990613399565b60405180910390fd5b611d8e60008383611ade565b6001600360008473ffffffffffffffffffffffffffffffffffffffff1673ffffffffffffffffffffffffffffffffffffffff1681526020019081526020016000206000828254611dde9190612d29565b92505081905550816002600083815260200190815260200160002060006101000a81548173ffffffffffffffffffffffffffffffffffffffff021916908373ffffffffffffffffffffffffffffffffffffffff160217905550808273ffffffffffffffffffffffffffffffffffffffff16600073ffffffffffffffffffffffffffffffffffffffff167fddf252ad1be2c89b69c2b068fc378daa952ba7f163c4a11628f55a4df523b3ef60405160405180910390a4611e9f60008383611ae3565b5050565b6000808273ffffffffffffffffffffffffffffffffffffffff163b119050919050565b60405180610100016040528060608152602001600073ffffffffffffffffffffffffffffffffffffffff1681526020016000815260200160008152602001600081526020016000815260200160008152602001600081525090565b6000604051905090565b600080fd5b600080fd5b60007fffffffff0000000000000000000000000000000000000000000000000000000082169050919050565b611f6a81611f35565b8114611f7557600080fd5b50565b600081359050611f8781611f61565b92915050565b600060208284031215611fa357611fa2611f2b565b5b6000611fb184828501611f78565b91505092915050565b60008115159050919050565b611fcf81611fba565b82525050565b6000602082019050611fea6000830184611fc6565b92915050565b600081519050919050565b600082825260208201905092915050565b60005b8381101561202a57808201518184015260208101905061200f565b83811115612039576000848401525b50505050565b6000601f19601f8301169050919050565b600061205b82611ff0565b6120658185611ffb565b935061207581856020860161200c565b61207e8161203f565b840191505092915050565b600060208201905081810360008301526120a38184612050565b905092915050565b6000819050919050565b6120be816120ab565b81146120c957600080fd5b50565b6000813590506120db816120b5565b92915050565b6000602082840312156120f7576120f6611f2b565b5b6000612105848285016120cc565b91505092915050565b600073ffffffffffffffffffffffffffffffffffffffff82169050919050565b60006121398261210e565b9050919050565b6121498161212e565b82525050565b60006020820190506121646000830184612140565b92915050565b6121738161212e565b811461217e57600080fd5b50565b6000813590506121908161216a565b92915050565b600080604083850312156121ad576121ac611f2b565b5b60006121bb85828601612181565b92505060206121cc858286016120cc565b9150509250929050565b6121df816120ab565b82525050565b60006020820190506121fa60008301846121d6565b92915050565b60008060006060848603121561221957612218611f2b565b5b600061222786828701612181565b935050602061223886828701612181565b9250506040612249868287016120cc565b9150509250925092565b6000819050919050565b61226681612253565b82525050565b6000610100820190508181036000830152612287818b612050565b9050612296602083018a612140565b6122a3604083018961225d565b6122b0606083018861225d565b6122bd608083018761225d565b6122ca60a08301866121d6565b6122d760c08301856121d6565b6122e460e08301846121d6565b9998505050505050505050565b60006020828403121561230757612306611f2b565b5b600061231584828501612181565b91505092915050565b600082825260208201905092915050565b600061233a82611ff0565b612344818561231e565b935061235481856020860161200c565b61235d8161203f565b840191505092915050565b6123718161212e565b82525050565b61238081612253565b82525050565b61238f816120ab565b82525050565b60006101008301600083015184820360008601526123b3828261232f565b91505060208301516123c86020860182612368565b5060408301516123db6040860182612377565b5060608301516123ee6060860182612377565b5060808301516124016080860182612377565b5060a083015161241460a0860182612386565b5060c083015161242760c0860182612386565b5060e083015161243a60e0860182612386565b508091505092915050565b6000602082019050818103600083015261245f8184612395565b905092915050565b61247081611fba565b811461247b57600080fd5b50565b60008135905061248d81612467565b92915050565b600080604083850312156124aa576124a9611f2b565b5b60006124b885828601612181565b92505060206124c98582860161247e565b9150509250929050565b600080fd5b600080fd5b7f4e487b7100000000000000000000000000000000000000000000000000000000600052604160045260246000fd5b6125158261203f565b810181811067ffffffffffffffff82111715612534576125336124dd565b5b80604052505050565b6000612547611f21565b9050612553828261250c565b919050565b600067ffffffffffffffff821115612573576125726124dd565b5b61257c8261203f565b9050602081019050919050565b82818337600083830152505050565b60006125ab6125a684612558565b61253d565b9050828152602081018484840111156125c7576125c66124d8565b5b6125d2848285612589565b509392505050565b600082601f8301126125ef576125ee6124d3565b5b81356125ff848260208601612598565b91505092915050565b6000806000806080858703121561262257612621611f2b565b5b600061263087828801612181565b945050602061264187828801612181565b9350506040612652878288016120cc565b925050606085013567ffffffffffffffff81111561267357612672611f30565b5b61267f878288016125da565b91505092959194509250565b600081519050919050565b600082825260208201905092915050565b6000819050602082019050919050565b60006101008301600083015184820360008601526126d5828261232f565b91505060208301516126ea6020860182612368565b5060408301516126fd6040860182612377565b5060608301516127106060860182612377565b5060808301516127236080860182612377565b5060a083015161273660a0860182612386565b5060c083015161274960c0860182612386565b5060e083015161275c60e0860182612386565b508091505092915050565b600061277383836126b7565b905092915050565b6000602082019050919050565b60006127938261268b565b61279d8185612696565b9350836020820285016127af856126a7565b8060005b858110156127eb57848403895281516127cc8582612767565b94506127d78361277b565b925060208a019950506001810190506127b3565b50829750879550505050505092915050565b600060208201905081810360008301526128178184612788565b905092915050565b6000806040838503121561283657612835611f2b565b5b600061284485828601612181565b925050602061285585828601612181565b9150509250929050565b7f4e487b7100000000000000000000000000000000000000000000000000000000600052602260045260246000fd5b600060028204905060018216806128a657607f821691505b6020821081036128b9576128b861285f565b5b50919050565b7f4552433732313a20617070726f76656420717565727920666f72206e6f6e657860008201527f697374656e7420746f6b656e0000000000000000000000000000000000000000602082015250565b600061291b602c83611ffb565b9150612926826128bf565b604082019050919050565b6000602082019050818103600083015261294a8161290e565b9050919050565b7f4552433732313a20617070726f76616c20746f2063757272656e74206f776e6560008201527f7200000000000000000000000000000000000000000000000000000000000000602082015250565b60006129ad602183611ffb565b91506129b882612951565b604082019050919050565b600060208201905081810360008301526129dc816129a0565b9050919050565b7f4552433732313a20617070726f76652063616c6c6572206973206e6f74206f7760008201527f6e6572206e6f7220617070726f76656420666f7220616c6c0000000000000000602082015250565b6000612a3f603883611ffb565b9150612a4a826129e3565b604082019050919050565b60006020820190508181036000830152612a6e81612a32565b9050919050565b7f4552433732313a207472616e736665722063616c6c6572206973206e6f74206f60008201527f776e6572206e6f7220617070726f766564210000000000000000000000000000602082015250565b6000612ad1603283611ffb565b9150612adc82612a75565b604082019050919050565b60006020820190508181036000830152612b0081612ac4565b9050919050565b7f4e487b7100000000000000000000000000000000000000000000000000000000600052601160045260246000fd5b6000612b41826120ab565b9150612b4c836120ab565b925082821015612b5f57612b5e612b07565b5b828203905092915050565b7f4e487b7100000000000000000000000000000000000000000000000000000000600052603260045260246000fd5b7f4552433732313a206f776e657220717565727920666f72206e6f6e657869737460008201527f656e7420746f6b656e0000000000000000000000000000000000000000000000602082015250565b6000612bf5602983611ffb565b9150612c0082612b99565b604082019050919050565b60006020820190508181036000830152612c2481612be8565b9050919050565b7f4552433732313a2062616c616e636520717565727920666f7220746865207a6560008201527f726f206164647265737300000000000000000000000000000000000000000000602082015250565b6000612c87602a83611ffb565b9150612c9282612c2b565b604082019050919050565b60006020820190508181036000830152612cb681612c7a565b9050919050565b7f596f752073686f756c6420706179206174206c65617374203120457468657200600082015250565b6000612cf3601f83611ffb565b9150612cfe82612cbd565b602082019050919050565b60006020820190508181036000830152612d2281612ce6565b9050919050565b6000612d34826120ab565b9150612d3f836120ab565b9250827fffffffffffffffffffffffffffffffffffffffffffffffffffffffffffffffff03821115612d7457612d73612b07565b5b828201905092915050565b7f4552433732314d657461646174613a2055524920717565727920666f72206e6f60008201527f6e6578697374656e7420746f6b656e0000000000000000000000000000000000602082015250565b6000612ddb602f83611ffb565b9150612de682612d7f565b604082019050919050565b60006020820190508181036000830152612e0a81612dce565b9050919050565b600081905092915050565b6000612e2782611ff0565b612e318185612e11565b9350612e4181856020860161200c565b80840191505092915050565b6000612e598285612e1c565b9150612e658284612e1c565b91508190509392505050565b7f4552433732313a206f70657261746f7220717565727920666f72206e6f6e657860008201527f697374656e7420746f6b656e0000000000000000000000000000000000000000602082015250565b6000612ecd602c83611ffb565b9150612ed882612e71565b604082019050919050565b60006020820190508181036000830152612efc81612ec0565b9050919050565b7f4552433732313a207472616e736665722066726f6d20696e636f72726563742060008201527f6f776e6572000000000000000000000000000000000000000000000000000000602082015250565b6000612f5f602583611ffb565b9150612f6a82612f03565b604082019050919050565b60006020820190508181036000830152612f8e81612f52565b9050919050565b7f4552433732313a207472616e7366657220746f20746865207a65726f2061646460008201527f7265737300000000000000000000000000000000000000000000000000000000602082015250565b6000612ff1602483611ffb565b9150612ffc82612f95565b604082019050919050565b6000602082019050818103600083015261302081612fe4565b9050919050565b7f4552433732313a20617070726f766520746f2063616c6c657200000000000000600082015250565b600061305d601983611ffb565b915061306882613027565b602082019050919050565b6000602082019050818103600083015261308c81613050565b9050919050565b7f4552433732313a207472616e7366657220746f206e6f6e20455243373231526560008201527f63656976657220696d706c656d656e7465720000000000000000000000000000602082015250565b60006130ef603283611ffb565b91506130fa82613093565b604082019050919050565b6000602082019050818103600083015261311e816130e2565b9050919050565b6000613130826120ab565b91507fffffffffffffffffffffffffffffffffffffffffffffffffffffffffffffffff820361316257613161612b07565b5b600182019050919050565b7f4e487b7100000000000000000000000000000000000000000000000000000000600052601260045260246000fd5b60006131a7826120ab565b91506131b2836120ab565b9250826131c2576131c161316d565b5b828204905092915050565b60006131d8826120ab565b91506131e3836120ab565b9250826131f3576131f261316d565b5b828206905092915050565b600081519050919050565b600082825260208201905092915050565b6000613225826131fe565b61322f8185613209565b935061323f81856020860161200c565b6132488161203f565b840191505092915050565b60006080820190506132686000830187612140565b6132756020830186612140565b61328260408301856121d6565b8181036060830152613294818461321a565b905095945050505050565b6000815190506132ae81611f61565b92915050565b6000602082840312156132ca576132c9611f2b565b5b60006132d88482850161329f565b91505092915050565b7f4552433732313a206d696e7420746f20746865207a65726f2061646472657373600082015250565b6000613317602083611ffb565b9150613322826132e1565b602082019050919050565b600060208201905081810360008301526133468161330a565b9050919050565b7f4552433732313a20746f6b656e20616c7265616479206d696e74656400000000600082015250565b6000613383601c83611ffb565b915061338e8261334d565b602082019050919050565b600060208201905081810360008301526133b281613376565b905091905056fea26469706673582212209c52d6d8862bbe400522cf0e63ca40917caeab9e0be9aaed9cfcb6f8db9d202864736f6c634300080d0033",
  "immutableReferences": {},
  "source": "// SPDX-License-Identifier: MIT\npragma solidity >=0.4.22 <0.9.0;\n\nimport \"@openzeppelin/contracts/token/ERC721/ERC721.sol\";\n\ncontract Land is ERC721 {\n    uint public cost = 1 ether;\n    uint public maxSupply = 5;\n    uint public totalSupply;\n\n    // Every building will be a struct\n    struct Building {\n        string name;\n        address owner;\n        int256 posX;\n        int256 posY;\n        int256 posZ;\n        uint256 sizeX;\n        uint256 sizeY;\n        uint256 sizeZ;\n    }\n\n    Building[] public buildings;\n\n    constructor(string memory _name, string memory _symbol, uint _cost) ERC721(_name, _symbol) {\n        cost = _cost;\n        // Create a default buildings for selling \n        buildings.push(\n            Building(\"City Hall\", address(0x0), 0, 0, 0, 10, 10, 10)\n        );\n        buildings.push(\n            Building(\"Stadium\", address(0x0), 0, 10, 0, 10, 5, 3)\n        );\n        buildings.push(\n            Building(\"University\", address(0x0), 0, -10, 0, 10, 5, 3)\n        );\n        buildings.push(\n            Building(\"Shopping Plaza 1\", address(0x0), 10, 0, 0, 5, 25, 5)\n        );\n        buildings.push(\n            Building(\"Shopping Plaza 2\", address(0x0), -10, 0, 0, 5, 25, 5)\n        );\n    }\n\n    receive() external payable { }\n\n\n    function mint(uint256 _id) public payable {\n        uint256 supply = totalSupply;\n        // check if buildings awailable, condition must be true to continue execution\n        require(supply <= maxSupply);\n        // check if the building has a owner - start from 0\n        require(buildings[_id - 1].owner == address(0x0));\n        // check the price payed\n        require(msg.value >= cost, \"You should pay at least 1 Ether\");\n\n        // buy the building\n        buildings[_id - 1 ].owner = msg.sender;\n        totalSupply += 1;\n\n        _safeMint(msg.sender, _id);\n    }\n\n\n    function transferFrom(address from, address to, uint256 tokenId) public override {\n        // check if it's approved using openzeppling ERC721\n        require(_isApprovedOrOwner(_msgSender(), tokenId), \"ERC721: transfer caller is not owner nor approved!\");\n    \n       // transfer building\n       buildings[tokenId - 1].owner = to;\n       _transfer(from, to, tokenId); \n    }\n\n    function safeTransferFrom(address from, address to, uint tokenId, bytes memory _data) public override {\n        // check if it's approved using openzeppling ERC721\n        require(_isApprovedOrOwner(_msgSender(), tokenId), \"ERC721: transfer caller is not owner nor approved!\");\n\n        // update buildings ownership\n        buildings[tokenId - 1].owner = to;\n        _safeTransfer(from, to, tokenId, _data); \n    }\n\n    function getBuildings() public view returns(Building[] memory) {\n        return buildings;\n    }\n\n    function getBuilding(uint256 _id) public view returns(Building memory) {\n        return buildings[_id  - 1];\n    }\n}\n",
  "sourcePath": "/Users/danielancuta/Development/blockchain/truffle-react-metaverse-app/src/contracts/Land.sol",
  "compiler": {
    "name": "solc",
    "version": "0.8.13+commit.abaa5c0e.Emscripten.clang"
  },
  "schemaVersion": "3.4.7",
  "updatedAt": "2022-06-09T07:13:19.919Z",
  "networkType": "ethereum",
  "devdoc": {
    "kind": "dev",
    "methods": {
      "approve(address,uint256)": {
        "details": "See {IERC721-approve}."
      },
      "balanceOf(address)": {
        "details": "See {IERC721-balanceOf}."
      },
      "getApproved(uint256)": {
        "details": "See {IERC721-getApproved}."
      },
      "isApprovedForAll(address,address)": {
        "details": "See {IERC721-isApprovedForAll}."
      },
      "name()": {
        "details": "See {IERC721Metadata-name}."
      },
      "ownerOf(uint256)": {
        "details": "See {IERC721-ownerOf}."
      },
      "safeTransferFrom(address,address,uint256)": {
        "details": "See {IERC721-safeTransferFrom}."
      },
      "safeTransferFrom(address,address,uint256,bytes)": {
        "details": "See {IERC721-safeTransferFrom}."
      },
      "setApprovalForAll(address,bool)": {
        "details": "See {IERC721-setApprovalForAll}."
      },
      "supportsInterface(bytes4)": {
        "details": "See {IERC165-supportsInterface}."
      },
      "symbol()": {
        "details": "See {IERC721Metadata-symbol}."
      },
      "tokenURI(uint256)": {
        "details": "See {IERC721Metadata-tokenURI}."
      },
      "transferFrom(address,address,uint256)": {
        "details": "See {IERC721-transferFrom}."
      }
    },
    "version": 1
  },
  "userdoc": {
    "kind": "user",
    "methods": {},
    "version": 1
  }
}